:020000040800F2
:10000000306700207D020008255A000831470008AB
:1000100099560008451B0008B97800080000000048
:10002000000000000000000000000000F16C00086B
:10003000631C000800000000275A0008D96D000862
:10004000970200089702000897020008970200082C
:100050009702000897020008651C0008711C000840
:100060009D1C000897020008C91C000897020008A0
:1000700097020008970200089702000897020008FC
:1000800097020008970200089702000897020008EC
:10009000970200089702000897020008D51C000884
:1000A00097020008970200089702000897020008CC
:1000B00097020008970200089702000897020008BC
:1000C00097020008970200089702000897020008AC
:1000D000970200083177000897020008970200088D
:1000E000970200089702000897020008970200088C
:1000F000970200089702000897020008970200087C
:10010000970200089702000897020008970200086B
:10011000970200089702000897020008970200085B
:10012000491B000897020008970200089702000880
:10013000970200089702000897020008970200083B
:10014000970200089702000897020008970200082B
:10015000970200089702000897020008970200081B
:10016000970200089702000897020008970200080B
:10017000970200089702000897020008000000009C
:1001800097020008970200089702000897020008EB
:1001900097020008970200089702000897020008DB
:1001A00097020008970200089702000800F002F882
:1001B00000F055F80AA090E8000C82448344AAF1AC
:1001C0000107DA4501D100F04AF8AFF2090EBAE8AA
:1001D0000F0013F0010F18BFFB1A43F0010318477B
:1001E00034C1000054C10000103A24BF78C878C15F
:1001F000FAD8520724BF30C830C144BF04680C602D
:10020000704700000023002400250026103A28BF74
:1002100078C1FBD8520728BF30C148BF0B60704778
:1002200066290BF08687642900F05481782900F054
:100230008D81632900F04786732900F04C860020E9
:1002400070471FB50BF027FF00F07EFE0400002072
:1002500000210BF0A1FAE0601FBD10B510BD00F049
:1002600077FF1146FFF7EDFF0AF004FF00F095FF5E
:1002700003B4FFF7F2FF03BC07F08FFD0948804786
:1002800009480047FEE7FEE7FEE7FEE7FEE7FEE778
:10029000FEE7FEE7FEE7FEE704480549054A064B90
:1002A00070470000A16E0008AD0100083055002025
:1002B000306700203057002030570020704753EA45
:1002C000020C00F069802DE9F04B4FF00006002B86
:1002D0001FBFB3FA83F503FA05F424FA05F65E406E
:1002E00012BF1643B2FA82F502FA05F4C5F12005F1
:1002F0001EBF22FA05FC44EA0C04203556EA044CE1
:100300004FEA144418BF641C4FF000084FF0000976
:10031000904271EB030C39D3002919BFB1FA81F770
:1003200001FA07F6B0FA80F700FA07F6C7F12007DE
:100330001EBF20FA07FC46EA0C062037B6FBF4FC89
:10034000A7EB0507103F07F01F0BCBF120060CFAB7
:100350000BFB2CFA06F644BFB3460026202FA4BFA1
:100360005E464FF0000B5BEA060C08BF4FF0010B36
:1003700019EB0B09ABFB027C48EB0608C01B06FB24
:1003800002CC0BFB03CC71EB0C01C1E70B46024620
:1003900041464846BDE8F08B13B54FF000004FF0E2
:1003A0000001AFF30080BDE81C40704710B54C1051
:1003B00084EA530404D54042C1F1000138BF491E0C
:1003C0001B4204D55242C3F1000338BF5B1EFFF746
:1003D00076FF14F0804F04D04042C1F1000138BFD5
:1003E000491E14F0004F04D05242C3F1000338BF3D
:1003F0005B1E10BD0FB4044910B503AA029800F0AB
:100400006FFD10BC5DF814FB040000200FB41CB598
:10041000074B06AA7B4469460090059800F031FD21
:100420000020694600F040FD1CBC5DF814FB000094
:10043000910A000070B5044685690068C10601D5BF
:10044000302600E02026C00707D070BDD4E9012186
:1004500030469047206A401C20626D1EF6D570BD64
:1004600070B5044685690078C00707D170BDD4E92E
:10047000012120209047206A401C20626D1EF6D585
:1004800070BD70B50C460546012A05D02878800657
:1004900000D5EA69002302E0012305E05B1C9342DA
:1004A00002D2E05C0028F9D1A869E618C01AA86158
:1004B000286A184428622846FFF7BCFF04E0D5E903
:1004C000012114F8010B9047B442F8D32846FFF7F6
:1004D000C7FF70BD2DE9F04106460024106875295C
:1004E000314616A510D0AFF30080002802DA404252
:1004F00013A507E031688A0701D512A502E0490774
:1005000004D511A5012401E0AFF3008000210A22E7
:1005100006F1240709E0B0FBF2FCB0FBF2F302FBAA
:100520001C00303078541846491C0028F3D123466B
:100530002A463046BDE8F04100F036BA000000001F
:100540002D0000002B0000002000000070B50446C4
:100550000D4621461068AFF300802188090502D5B9
:100560000F4A7A4402E00E4A7A440E32002104F126
:10057000240305E000F00F060009965D5E54491C57
:100580000028F7D120780023000704D5702D02D071
:1005900009B1022311322046BDE8704000F004BAD0
:1005A000DEBC00002DE9F05F894604464FF0000AEA
:1005B000DFF824B1FB44C0F820A02046E16888475A
:1005C00000287DD0252806D0D4E901219047206A53
:1005D000401C2062F1E700255F462046E16888471D
:1005E0002028064607DB312E05D2B81910F8200C5A
:1005F00008B10543F1E7A80701D525F00405C4F8C3
:100600001CA00027C4F818A02A2E09D0304607F0F5
:10061000BDFB38B304EB8708303EC8F8186019E01A
:1006200059F8041B204604EB87029161E168884772
:10063000012F064618D1E069002820DA25F02005B0
:100640001DE0D8F8180000EB800006EB40003038C1
:10065000C8F818002046E1688847064607F096FB70
:100660000028EED1012F0AD02E2E08D12046E168B5
:1006700088477F1C0646022F45F02005C4DBA06991
:10068000002803DA404245F00105A061E80701D0E7
:1006900025F01005A6B1A6F14100192802D8203690
:1006A00045F400654A463146204625604D46FFF731
:1006B000B7FD60B1012807D0ED1D25F0070000E06F
:1006C00007E000F1080978E705F1040975E730460D
:1006D0007AE7206ABDE8F09FB4BC000040EA01035D
:1006E00010B59B070FD1042A0DD310C808C9121FDB
:1006F0009C42F8D020BA19BA884201D9012010BD15
:100700004FF0FF3010BD1AB1D30703D0521C07E0E1
:10071000002010BD10F8013B11F8014B1B1B07D145
:1007200010F8013B11F8014B1B1B01D1921EF1D1B6
:10073000184610BD40EA0103024630B59B0710D1B0
:100740004FF0013400E008C208C91D1B9D4315EAA3
:10075000C41FF8D013F0FF0102F8011B0DD01B0AD3
:10076000F8E711F8013B002B02F8013B05D011F826
:10077000013B002B02F8013BF3D130BD10B5431C07
:1007800002E010F8011B71B18107FAD14FF001327C
:1007900002C88C1A8C4314EAC211F9D0C01A0A0696
:1007A00003D0C01E10BDC01A10BD0A0401D0801EA7
:1007B00010BD0902FCD0401E10BD421E12F8013FC0
:1007C000002BFBD111F8013B002B02F8013BF9D1C2
:1007D0007047032A40F2308010F0030C00F01580BF
:1007E00011F8013BBCF1020F624498BF11F801CB34
:1007F00000F8013B38BF11F8013BA2F1040298BF99
:1008000000F801CB38BF00F8013B11F0030300F002
:100810002580083AC0F0088051F8043B083A51F8A6
:1008200004CBA0E80810F5E7121D5CBF51F8043BAB
:1008300040F8043BAFF30080D20724BF11F8013B1E
:1008400011F801CB48BF11F8012B24BF00F8013B80
:1008500000F801CB48BF00F8012B704710B5203AD3
:10086000C0F00B80B1E81850203AA0E81850B1E869
:100870001850A0E81850BFF4F5AF5FEA027C24BF1F
:10088000B1E81850A0E8185044BF18C918C0BDE816
:1008900010405FEA827C24BF51F8043B40F8043BDF
:1008A00008BF7047D20728BF31F8023B48BF11F894
:1008B000012B28BF20F8023B48BF00F8012B7047EE
:1008C00002F0FF0343EA032242EA024200F01CBBAB
:1008D0004FF0000200B5134694469646203922BFD9
:1008E000A0E80C50A0E80C50B1F12001BFF4F7AF24
:1008F000090728BFA0E80C5048BF0CC05DF804EB06
:10090000890028BF40F8042B08BF704748BF20F873
:10091000022B11F0804F18BF00F8012B7047000028
:100920004FF0013C50F8042B51F8043B9A4221D17E
:10093000A2EB0C03934313EACC1317D150F8042B0A
:1009400051F8043B9A4215D1A2EB0C03934313EAEE
:10095000CC130BD150F8042B51F8043B9A4209D127
:10096000A2EB0C03934313EACC13DBD04FF000004F
:10097000704700BFD01A01BAB1FA81F101F0180135
:1009800022FA01F0CB40C1F12001DBB2C0B2C01AA3
:100990002CFA01F3D11A914311EAC311E6D1704741
:1009A00070477047704770472DE9F0470D469946EC
:1009B0009246044600F124080168880604D5E069DF
:1009C00021F01001216000E00120A84201DD471B59
:1009D00000E00027A1697A1902EB0900081AA0615A
:1009E0002078C00602D42046FFF724FD002608E048
:1009F000D4E901211AF806009047206A401C761CB1
:100A000020624E45F4DB2078C0060AD52046FFF769
:100A100011FD06E0D4E9012130209047206A401CF6
:100A20002062381EA7F10107F4DC07E0D4E90121B8
:100A300018F805009047206A401C2062281EA5F186
:100A40000105F3DC2046FFF70BFD2078000602D5F8
:100A50000220BDE8F0870120FBE770472DE9FF4F3A
:100A60000C461E464FF0FF378BB0D2E90001DDF88F
:100A700060800A908A46C1F30A5505B93D460021B7
:100A800008464FF00000BAF1000F00F4400005DA0C
:100A900000EB80004FF4400101EA50004FEA90590A
:100AA000B9F1010F00DDB9460A9850EA4A000ED0AC
:100AB00044F61050A5F2FF3545432F14B8F1000F4E
:100AC0001ED07542291E1EDDC9F100021CE0B8F1DE
:100AD000010F4FF0000001D0302103E0F24305E0A8
:100AE0002154401CB042FBDB30460022002121543F
:100AF0000B99C1F80880C1E900200FB0BDE8F08F64
:100B0000BD1B6D1CDEE74A4600DA694206A800F00C
:100B1000A5FA06AB93E8070003AB83E8070050464D
:100B20000A9900F043FB8DE80700A0F500501F383C
:100B300000900398002D0ADD42F21F014A46084446
:100B4000002303A90390684600F0ACFD09E0A0F57E
:100B500000504A461F38002303A90390684600F05E
:100B6000B6FD8DE807000004000C03D04FF0FF3005
:100B7000410800E01046B8F1000F03D000220092B7
:100B800015461EE0751E05D400F0E2F930326255BC
:100B90006D1EF9D5B3460122084302D000227F1C06
:100BA00004E02078302801D100227F1E002A099716
:100BB00084D01DE0112D07DA00F0CAF930326255F9
:100BC0006D1C50EA0102F5D1084302D00098C8B16B
:100BD0000EE00021681E05E0235C625C6354225431
:100BE000401E491C8142F7DBAB46A81B401E099002
:100BF000002004F80B000B98099AC0F80880C0E99F
:100C0000002B7AE711264FF0000857E72DE9F04F47
:100C100088460446D21D22F0070191B0D1E90001B7
:100C2000CDE90A0107F07DF802460B98C00F01D00C
:100C30002D2007E02068810701D52B2002E020212C
:100C400001EAC000032A099001D0072A05DB034608
:100C50004146204600F0C2F90BE12078800601D51C
:100C6000E06900E00620B8F1650F814606D0B8F1D2
:100C7000660F18D0B8F1670F70D131E00020B9F1DC
:100C8000110F009001DB112301E009F101030AAA11
:100C900001A90CA8FFF7E2FEDDE90C70002609F1BE
:100CA0000105834647E001204B4600904FF0004786
:100CB0000AAA01A90CA8FFF7D1FEDDE90DB00C9935
:100CC0005D46002610B909F101000D18B9EB0500C9
:100CD00003D4C0F1FF3609F10105A5EB09002BE0B3
:100CE000B9F1010F01DA4FF001090020B9F1110F3C
:100CF0000090484601DD112300E003460AAA01A93D
:100D00000CA8FFF7ABFEDDE90C704D4600268346CC
:100D1000207800070AD4AB4500DA5D4601A8012D12
:100D200004DD411911F8011C302907D04F4502DAC2
:100D300017F1040F04DA012082460FE06D1EEEE782
:100D4000002F02DCED1B3E4403E0781CA84200DDCE
:100D50007D1CB81B00F1010A4FF000472078000706
:100D600003D4AA4501DB4FF0FF3A0021B7F1004F51
:100D70000DF143088DF8431024D002202B23002FBF
:100D800001DA7F422D230A21021EA0F1010000DCBE
:100D90005FB197FBF1FC97FBF1F201FB1C7C17465E
:100DA0000CF1300C08F801CDEEE7A8F1010003705A
:100DB0002188090501D5452100E06521A0F1010840
:100DC00000F8011C09980FA9A1EB0807FF1D00B14D
:100DD0000120411901EBEA70A1693844081A401E4C
:100DE000A0612078C00602D42046FFF723FB0998B3
:100DF00028B1D4E901219047206A401C2062207864
:100E0000C00622D52046FFF715FB1EE0002E04DBAE
:100E1000B34502DD01A8805D00E03020D4E9012166
:100E20009047206A401C2062761CAAF101005FEA0C
:100E3000000A0AD100F088F8C0680168405CD4E973
:100E400001219047206A401C2062281EA5F101055F
:100E5000DCDC07E0D4E9012118F8010B9047206A97
:100E6000401C2062381EA7F10107F3DC2046FFF783
:100E7000F7FA032011B041E601694A1C02610878C3
:100E8000704700B58FB0CDE90131002105910549CA
:100E90007944CDE9031011466846FFF783FB0FB094
:100EA00000BD0000E5FFFFFF0A6802F8010B0A60C1
:100EB000704710B5436913B1AFF3008001E0FFF74D
:100EC000E0FA012010BD127800F124010A7000221E
:100ED0004A700122EDE711684FF0FF32E9E70000A8
:100EE000074B70B50D467B44FFF7CBFF0446284601
:100EF00000F026F910B14FF0FF3070BD204670BDF4
:100F00002F9A00004FF000020429C0F0128010F068
:100F1000030C3FF4DFACCCF1040CBCF1020F18BFA2
:100F200000F8012BA8BF20F8022BA1EB0C01FFF762
:100F3000D1BC5FEAC17C24BF00F8012B00F8012B73
:100F400048BF00F8012B704700487047EC54002060
:100F500030B5B0F10A024FEA900E71F100034EEA8B
:100F6000817EB0EB0E0061EB91014FEA101E4EEA5C
:100F7000017E10EB0E0041EB11114FEA102E4EEAEC
:100F8000016E10EB0E0041EB11214FEA104E4EEABC
:100F9000014E10EB0E0041EB1141401841F10001F0
:100FA0004FEAD00040EA41704FEAD10110EB8005D2
:100FB0004FEA810444EA907444EB01046D1944EB58
:100FC0000404521BA3414FF0000348BF0A3200D56E
:100FD00030BD401C41F1000130BD00002DE9F04161
:100FE0001F46044603260168072A01F4006004DB5B
:100FF00008B116A505E016A503E008B115A500E0A7
:1010000015A521F010002060A069C01EA0610FB1DD
:10101000401EA0612046FFF70DFA4FB1D4E901212F
:1010200038469047206A401C2062C01C206206E0BF
:10103000206AFAE7D4E9012115F8010B9047761EE2
:10104000F8D22046FFF70CFABDE8F0814E414E0081
:101050006E616E00494E4600696E66002DE9F047EC
:10106000814616468AB0354878440DC88DE80D0093
:1010700032487844801C03AC0DC884E80D0041F66A
:101080009B300844372190FBF1F290FBF1F5A5F17C
:10109000800501FB12041B3C02D56442012000E0E4
:1010A0000020DFF898A080460027FA44AAF1BE0A83
:1010B0000EE0E0070AD03246684607EB47010123FD
:1010C0000AEB810100F003FB8DE8070064107F1C30
:1010D000002CEED1194F7F44AE3F19E0E80715D040
:1010E00007EB04100DF1180A90E80E008AE80E00D4
:1010F000C068F04201D1981908903246012306A930
:1011000003A800F0E4FA03AB83E807006D10641C49
:10111000002DE3D14FF0010332466946B8F1000FCC
:1011200003A802D000F0BEFA01E000F0D0FAC9E94D
:101130000001C9F808200AB0BDE8F08790B20000AD
:10114000007B00F08000704700487047CC540020BE
:101150007546FFF7F9FFAE4605006946534620F095
:101160000700854618B020B5FFF796F8BDE8204087
:101170004FF000064FF000074FF000084FF0000B53
:1011800021F00701AC46ACE8C009ACE8C009ACE806
:10119000C009ACE8C0098D46704710B50446AFF3EE
:1011A00000802046BDE81040FFF762B85FEA400CBF
:1011B00008BF91F0000F4FEA8C234FEAC12243EAA7
:1011C00051514FEA1C5018BF00F5F0404FEA300073
:1011D00018BF41F000415FEA6C5C00F02980BCF16F
:1011E000FF3F08BF40F080407047130C06BF120459
:1011F0004FF0100C4FF0000C130E04BF12020CF154
:10120000080C130F04BF12010CF1040C930F04BF60
:1012100092000CF1020CD30F04BF52000CF1010C30
:1012200011464FF00002A0F11F00A0EB0C00704728
:1012300011F0004F08BF704731F000413FF4D5AFC7
:101240000B0C06BF09044FF0100C4FF0000C0B0EF6
:1012500004BF09020CF1080C0B0F04BF09010CF1CB
:10126000040C8B0F04BF89000CF1020CCB0F04BFE0
:1012700049000CF1010CCCF12003A0EB0C0022FA88
:1012800003F302FA0CF241EA030100F10100704796
:1012900020F07F4C80EA030023F07F47ACEB07038C
:1012A00003F57C5300F0004003F1FF032DE9804972
:1012B0004FEA154B09B44FEA144325EA0B4E24EAD2
:1012C00003480FF2042606EB132749083E785FEA2D
:1012D000320203FB0667C7F5000707FB06F64FEA75
:1012E00054374FEAD64606F1020607FB066CCCF1EE
:1012F000005C4FEA1C472CEA074C07FB06F40CFB8A
:1013000006F504EB15464FEA961634BF00204FF061
:1013100000404FEAD13706FB07FC4FEA1C4C0CFBA0
:101320000BF7D21B03FB0CF761EB07010CFB0EF76D
:10133000B0EB074072EB17420CFB08F734BFA2EB8F
:101340000742B2EB074261EB17414FEA0C444FEA08
:10135000910706FB07FC4FEA1C4C0CFB0BF7B0EBAC
:10136000C74072EB573203FB0CF734BFA2EBC74206
:10137000B2EBC74261EB57310CFB0EF7B0EBC70085
:1013800072EB57720CFB08F734BFA2EBC702B2EB4B
:10139000C70261EB5771039F4FEA816141EA9211E5
:1013A00004EBCC044FEAD1374FEA826206FB07FC1C
:1013B00042EA90124FEA80604FEA1C4C0CFB0BF79C
:1013C000D21B03FB0CF761EB07010CFB0EF7B0EB34
:1013D000074072EB17420CFB08F734BFA2EB074241
:1013E000B2EB074261EB17414FEA8C554FEA910788
:1013F00004EB9C2406FB07FC4FEA1C4C0CFB0BF790
:10140000B0EBC74072EB573203FB0CF734BFA2EBD3
:10141000C742B2EBC74261EB57310CFB0EF7B0EBA2
:10142000C70072EB57720CFB08F734BFA2EBC70280
:10143000B2EBC70261EB577115EB4C254FEA8161A6
:1014400041EA92114FEA82624FEAD13742EA9012A2
:1014500006FB07FC44F100044FEA80604FEA1C4C95
:101460000CFB0BF7D21B03FB0CF761EB07010CFB2A
:101470000EF7B0EB074072EB17420CFB08F734BFD6
:10148000A2EB0742B2EB074261EB174115EB1C15CB
:101490004FEA813141EA92414FEA823242EA904278
:1014A0004FEA80304FEA0C7644F1000448EA0343E7
:1014B0004EEA0B484FF0000EB2EB080C71EB03073D
:1014C00024BF624639464EEB0E0E4FF0000B00185B
:1014D000524149414BEB0B0BB2EB080C71EB03078C
:1014E0007BF1000B24BF624639464EEB0E0E4FF0E7
:1014F000000B0018524149414BEB0B0BB2EB080CAF
:1015000071EB03077BF1000B24BF624639464EEBBB
:101510000E0E51EA020718BF46F0010616EB0E76D2
:1015200055F1000254F1000103D5BDE88901BDE881
:101530000088BDE88901BDE80048B619524141EB79
:101540000101A3F10103704780807F7E7D7C7B7A5F
:101550007978777676757473727171706F6E6E6D5F
:101560006C6C6B6A6A696868676666656464636305
:1015700062616160605F5F5E5E5D5D5C5C5B5B5A8B
:101580005A595958585757565655555554545353F8
:1015900052525251515050504F4F4F4E4E4D4D4D53
:1015A0004C4C4C4B4B4B4A4A4A494949484848479E
:1015B00047474746464645454544444444434343DC
:1015C0004342424242414141002B9C4630D4770085
:1015D0002BD01CB54FEA370703B44FF010004FF083
:1015E0001001BAF1000F06D0BCF1000FDCBF40F0D3
:1015F000080040F008014FF000000FBCBDE81040AB
:101600000BF1010BBBF1010F08BF5FEA170722BF07
:1016100012F1010211F101014FF0004143F1000309
:1016200000F0004043EA00007047F9D35708D0E7C4
:1016300046EA064613F1400F4FEA16461FDD13F146
:10164000200FDFBF16430A46002120335B42BED085
:10165000C3F1200746EA064602FA07F74FEA1646A4
:1016600046EA0706C3F1200722FA03F201FA07F758
:1016700021FA03F14FF0000342EA0702A7E746EA26
:10168000020646EA06464FEA164646EA0106BCBF8F
:1016900046EA0646360C4FF000034FF000024FF0CA
:1016A000000194E72DE9804C9A46934670B491E886
:1016B000380007C831EA400C48BF34EA430C03D570
:1016C000FFF7E6FDFFF780FFF0BCBDE8008C2DE9D9
:1016D000804C9A46934670B491E8380007C810F0E1
:1016E000804F08BF13F0804F03D100F005F8FFF7DB
:1016F0006BFFF0BCBDE8008C20F07F4780EA030060
:1017000023F07F4C07EB0C03A3F57C5300F0004063
:10171000A3F1FE0392F0000F00F0B38095F0000FEC
:1017200000F077802DE901494FEA11404FEA144655
:1017300021EA004800FB06FC24EA064708FB06F6FF
:1017400007FB08F800FB07F718EB06484CEB164CB4
:101750004FEA124B18EB07484FEA15464CEB17407F
:1017600022EA0B4E0BFB06FC25EA06470EFB06F6AB
:1017700007FB0EFE0BFB07F71EEB064E4CEB164C61
:101780004FF000061EEB074E4CEB174B18EB0B0807
:1017900040F1000018EB0E0B58EB000840F1000080
:1017A0008F1A4FF000013CBFC943661B14BFB5EB55
:1017B000040C00213CBFC943F61B4FEA17444EEA14
:1017C0008E0E27EA04454FEA1C4704FB07622CEA09
:1017D000074C05FB07F70CFB05F604FB0CFC16EBAE
:1017E000074642EB174216EB0C4642EB1C421BEB42
:1017F000060658EB0202414146EA9E0601D5BDE8C5
:101800000189B619524141EB0101A3F10103BDE881
:1018100001894FEA14454FEA114724EA054621EAB7
:10182000074C05FB07F406FB07F70CFB06F105FB6D
:101830000CFC11EB074144EB17444FEA124711EB44
:101840000C4144EB1C4422EA074C05FB07F206FB63
:1018500007F70CFB06F605FB0CFC16EB074642EB04
:10186000174216EB0C4642EB1C456A1854F1000176
:1018700048BF7047B619524141EB0101A3F1010382
:10188000704795F0000F37D04FEA11424FEA1447E6
:1018900021EA024624EA074C02FB07F106FB07F7A0
:1018A0000CFB06F402FB0CFC14EB074441EB174164
:1018B0004FEA154714EB0C4441EB1C4125EA074C59
:1018C00002FB07F506FB07F70CFB06F602FB0CFC18
:1018D00016EB074645EB174516EB0C4645EB1C424D
:1018E000121951F1000148BF7047B619524141EB3E
:1018F0000101A3F1010370474FEA14454FEA114774
:1019000024EA054621EA074C05FB07F106FB07F729
:101910000CFB06F24FF0000605FB0CFC12EB074235
:1019200041EB174112EB0C4251EB1C4148BF704791
:10193000921841EB0101A3F10103704770B5054610
:10194000AC6B206C00F0500050BB206C40F4007079
:1019500020642068806800F04050E8B9207ED8B943
:101960002068C06A00F4700020B12068806800F42C
:10197000806088B92068406820F0200021684860B5
:10198000206C20F480702064206C00F4805018B922
:10199000206C40F001002064204600F003FC0BE0C6
:1019A000206C00F0100018B1204600F0FDFB03E0B1
:1019B000A06BC16C2846884770BD70B50546AC6BFE
:1019C00040202064606C40F004006064204600F019
:1019D000EBFB70BD70B50446A56B284600F0E3FB39
:1019E00070BD000055494A6822F440324A604A6896
:1019F00043681A434A600268526822F4807203689E
:101A00005A6002685368026943EA022203685A6016
:101A10000268526822F0407203685A600268526895
:101A200083681A4303685A600268926822F400626D
:101A300003689A6002689268C3681A4303689A60F0
:101A40003F4B826A9A4218D00268926822F0706214
:101A500003689A6002689268836A1A4303689A600E
:101A60000268926822F0405203689A6002689268A5
:101A7000C36A1A4303689A600BE00268926822F016
:101A8000706203689A600268926822F040520368AC
:101A90009A600268926822F0020203689A60026803
:101AA0009368027E43EA420203689A602022125C35
:101AB000A2B10268526842F4006203685A60026888
:101AC000526822F4604203685A6002685368426AAE
:101AD000521E43EA423203685A6005E002685268C7
:101AE00022F4006203685A600268D26A22F470022B
:101AF0000368DA620268D36A828B521E43EA02529A
:101B00000368DA620268926822F4007203689A60DD
:101B10000268936890F8302043EA422203689A6092
:101B20000268926822F4806203689A60026893688F
:101B3000426943EA822203689A60704700230140A9
:101B40000100000F00BFFEE710B5024800F076FC70
:101B500010BD0000A8440020014608781038182362
:101B6000B0FBF3F20848805CC865032A05D9086811
:101B70006FF30900001D886503E008686FF3090032
:101B80008865886D7047000040C10008014600204C
:101B90008A6A8B69CBB932B1012A0DD0022A03D0EF
:101BA000032A10D10EE000BFCB6A03F08073B3F1BB
:101BB000807F00D1012007E0CB6AB3F1C07F00D164
:101BC000012001E000E000BF34E08B69B3F5005F65
:101BD0001AD132B1012A07D0022A03D0032A11D127
:101BE0000AE000BF01200EE0CB6A03F08073B3F17E
:101BF000807F00D1012006E0CB6AB3F1C07F00D125
:101C0000012000E000BF15E032B1012A05D0022A10
:101C100004D0032A0CD103E000BF00BF012008E07C
:101C2000CB6A03F08073B3F1807F00D1012000E024
:101C300000BF00BF704730B50468246824F48024D6
:101C400005682C60046863608468402C04D10468D3
:101C5000A2600468E16003E00468A1600468E260D7
:101C600030BD704710B5012000F056FE10BD0000D9
:101C700010B503A0FEF7BEFB022000F04DFE10BD24
:101C8000636F6E736F6C653E2066616C6C696E6726
:101C9000206F6E20504B310D0A00000010B503A0DC
:101CA000FEF7A8FB042000F037FE10BD636F6E73D3
:101CB0006F6C653E2066616C6C696E67206F6E208C
:101CC000504B320D0A00000010B5102000F024FE29
:101CD00010BD000010B52DED028B1748006800F014
:101CE000800020B31548007818B901201349087006
:101CF00014E0134890ED000AB8EE400ADFED110A37
:101D000080EE201A11EE104A20460AF023F941EC29
:101D1000180B53EC182B0CA0FEF76CFB00200D49A0
:101D20000860802004490860BDEC028B10BD802053
:101D300000F0F2FD00BFF7E7143C01403000002046
:101D40007C000020000034435B252E326620757332
:101D50005D0000009482444210B5012002490860F1
:101D600002A0FEF747FB10BD948244425B455252ED
:101D70002048414E444C45525D0D0A0030B50446A2
:101D80000D4600222946204600F002F830BD000032
:101D9000F0B50346012500241148407A01281CDAD9
:101DA00000200F4E767A0E4FB8553846467A001D01
:101DB00040F82630001F467A083082553E46707A39
:101DC000461C7E72044604F1300008703A204870C8
:101DD0002F2088700020C87000252846F0BD000024
:101DE000C054002030B503460024102A01D1DC681D
:101DF00000E0DC6A0024D1E9000540EA05200D89F5
:101E000040EA05400D7B40EA05600443102A01D1F9
:101E1000DC6000E0DC62002030BD30B50346002409
:101E2000102A01D19C6800E09C6A0024D1E90005D9
:101E300040EA05200D8940EA05400D7B40EA056037
:101E40000443102A01D19C6000E09C62002030BD58
:101E500010B5024600230868102801D1136800E07D
:101E6000136A0D480340486840F008008C6820431E
:101E7000CC6820430C6920434C6940EA44208C69BB
:101E800040EA443003430868102801D1136000E0A1
:101E90001362002010BD00008101F0FF30B5024642
:101EA000002300240868012816D013686FF30E037E
:101EB000D1E901052843CD6828430D6928434D69C0
:101EC00028438D692843CD6928430D6A28434D6A0C
:101ED00028430343136019E0136823F4F843D1E95E
:101EE000070528434D6A2843034354686FF30E04E3
:101EF000D1E901052843CD6828430D6928434D6980
:101F000028438D692843044313605460002030BD8A
:101F1000F8B506460C461546002000900027D4E987
:101F200000010843A168491E40EA4110E16840EA07
:101F3000412000900098306100F010FE074609E053
:101F4000681C38B125B100F009FEC01BA84201D9B8
:101F50000320F8BDB06900F020002028F0D0002058
:101F6000F7E7000070B50346154600220024012D56
:101F70001FD09A6802F070420868401E4E68761EB4
:101F800040EA06168868401E46EA0026C868401ED9
:101F900046EA0036088A401E46EA0046888A401E05
:101FA00046EA0056087E401E46EA006002439A60F8
:101FB00022E09A6811480240C868401E0603888AD9
:101FC000401E46EA00500243DC6804F07044086892
:101FD000401E4E68761E40EA06168868401E46EA95
:101FE0000026088A401E46EA0046087E401E46EA51
:101FF000006004439A60DC60002070BDFF0F0FFF9B
:1020000038B502460020009000BF92F83C0001283D
:1020100001D1022038BD012082F83C0000BF0868D1
:10202000092816D91068C0680C780A3C04EB4405EE
:102030000724AC40A0431468E0600C780A3C04EB31
:1020400044048868A0401468E46820431468E06091
:1020500013E0106800690C7804EB44050724AC40D9
:10206000A043146820610C7804EB44048868A04005
:10207000146824692043146820614868072817D22F
:102080001068406B0C79641E04EB84051F24AC407F
:10209000A04314686063088880B20C79641E04EB66
:1020A0008404A0401468646B20431468606331E0CA
:1020B00048680D2817D21068006B0C79E41F04EBF8
:1020C00084051F24AC40A04314682063088880B2B4
:1020D0000C79E41F04EB8404A0401468246B2043B3
:1020E0001468206316E01068C06A0C790D3C04EB9C
:1020F00084051F24AC40A0431468E062088880B2C5
:102100000C790D3C04EB8404A0401468E46A20437D
:102110001468E0621E4B1F4C1068A0420AD1086888
:10212000122807D1586820F400005860586840F41D
:1021300080005860174C1068A04222D1164C0868E5
:10214000A04202D0086811281BD1586820F48000F2
:102150005860586840F4000058600F4C0868A0426E
:102160000FD10E4800680E4CB0FBF4F000EB80007D
:102170004000009002E00098401E00900098002867
:10218000F9D100BF002082F83C0000BF00BF41E74A
:102190000023014000200140120000104C000020EC
:1021A00040420F00704770477047000070B504460A
:1021B00000250CB9012070BD1549A06A884200D0E5
:1021C00000BF206C30B9204600F024F80020606485
:1021D00084F83C00206C00F0100088B9206C20F4DA
:1021E000885040F0020020642046FFF7FBFB0020EF
:1021F0006064206C20F0020040F00100206400E0E8
:10220000012500BF002084F83C0000BF2846D2E72B
:102210000100000F38B504461949206888422DD1C5
:1022200000BF002000901748006840F480701549F6
:1022300008600846006800F48070009000BF00BF8E
:102240001148124908600020486000210F48816051
:10225000C1604FF480610161490041618900816181
:102260000021C1610162416200F008FA08B1FFF784
:1022700073FD00BF0548A063846300BF38BD000044
:10228000002001404438024010640240A84400206D
:10229000F8B504460D4616460020009000BF94F89D
:1022A0003C00012801D10220F8BD012084F83C0047
:1022B00000BF2068806800F00100A0B92068806835
:1022C00040F0010021688860494800684949B0FB36
:1022D000F1F000EB4000009002E00098401E0090FA
:1022E00000980028F9D12068806800F001000028DB
:1022F0007CD0206C40F20161884340F480702064FF
:102300002068406800F4806028B1206C20F4005000
:1023100040F480502064206C00F48050B0F5805F61
:1023200004D1606C20F00600606401E0002060646D
:1023300000BF002084F83C0000BF2F4F2F48A16B46
:10234000C8632F48A16B08642E48A16BC8646FF066
:102350002200216808602068406840F080602168A1
:1023600048602068806840F4807021688860226836
:1023700002F14C0133462A46A06B00F0F5F978686B
:1023800000F01F0018BB20492068884213D01F4965
:102390002068884204D1381D006800F01F0050B149
:1023A0001B492068884221D11348001D006800F0B5
:1023B0001F0010281AD22068806800F0405028B909
:1023C0002068806840F08040216888600EE00E49F7
:1023D000206888420AD12068806800F0405028B9FF
:1023E0002068806840F080402168886000205BE7BA
:1023F0004C00002040420F00002301403D1900081E
:10240000D5190008BB190008002001400021014037
:1024100000220140014691F83500022803D08020B7
:10242000486501207047052081F83500086800687C
:1024300020F001000A6810600020F3E7F8B50446B8
:10244000002000908C4800684FF41651B0FBF1F763
:10245000A56D2E6894F85C1008208840304098B133
:102460002068006800F0040070B12068006820F067
:1024700004002168086094F85C1008208840A86077
:10248000606D40F00100606594F85C1001208840A8
:10249000304068B12068406900F0800040B194F895
:1024A0005C1001208840A860606D40F0020060650B
:1024B00094F85C1004208840304068B120680068BF
:1024C00000F0020040B194F85C1004208840A8603D
:1024D000606D40F00400606594F85C101020884046
:1024E000304078B32068006800F0080050B394F8DA
:1024F0005C1010208840A8602068006800F48020EC
:1025000080B12068006800F4002028B9206CC8B1B0
:102510002046216C884715E0A06C98B12046A16C3C
:1025200088470FE02068006800F4807028B92068B0
:10253000006820F0080021680860206C10B1204677
:10254000216C884794F85C10202088403040002897
:1025500065D02068006800F0100000285FD094F873
:102560005C1020208840A86094F83500052828D108
:102570002068006820F01600216808602068406923
:1025800020F0800021684861206C08B9A06C28B157
:102590002068006820F008002168086094F85C104A
:1025A0003F208840A86000BF002084F8340000BFAE
:1025B000012084F83500206D10B12046216D884738
:1025C000F8BD2068006800F4802080B120680068B1
:1025D00000F4002028B9606C10B12046616C884777
:1025E0001DE0E06BD8B12046E16B884717E020681A
:1025F000006800F4807068B92068006820F010005E
:102600002168086000BF002084F8340000BF01206A
:1026100084F83500E06B10B12046E16B8847606DAF
:1026200038B3606D00F00100F0B1052084F835008A
:102630002068006820F001002168086000BF009851
:10264000401C0090B84200D905E02068006800F006
:1026500001000028F3D100BF00BF002084F834003F
:1026600000BF012084F83500E06C10B12046E16C19
:10267000884700BFA4E700004C0000202DE9F0418E
:102680000446002500F06AFA074614B90120BDE8A7
:10269000F081606A00B100BF00BF002084F8340000
:1026A00000BF022084F835002068006820F0010097
:1026B000216808600AE000F051FAC01B052805D91E
:1026C00020206065032084F83500E0E7206800687A
:1026D00000F001000028EED120680568214805407F
:1026E000D4E901010843E1680843216908436169AD
:1026F0000843A1690843E1690843216A0843054387
:10270000606A042803D1D4E90B010843054320681B
:1027100005602068456925F00705606A0543606A21
:1027200004280DD1A06A0543E06A48B12046FFF7AE
:102730002DFA28B140206065012084F83500A6E715
:10274000206845612046FFF707FA064694F85C10BA
:102750003F208840B06000206065012084F835008B
:10276000002094E73F8010F02DE9F04704460D4625
:1027700016461F464FF00008D4F8589000BF94F852
:102780003400012802D10220BDE8F087012084F83E
:10279000340000BF94F83500012825D1022084F8C8
:1027A0003500002060653B46324629462046FFF74B
:1027B00042FA94F85C103F208840C9F8080020686D
:1027C000006840F0160021680860206C28B120687D
:1027D000006840F00800216808602068006840F048
:1027E00001002168086006E000BF002084F8340082
:1027F00000BF4FF002084046C6E7000070B504462F
:1028000000F0ACF906462546681C10B10448007873
:10281000054400BF00F0A2F9801BA842FAD370BDA6
:102820004800002000B587B0142102A8FEF750F838
:102830003148006808B107B000BD01202E4908608A
:1028400000BF002001902D48006840F001002B4996
:1028500008600846006800F00100019000BF00BF5A
:1028600048F23730029002200390002004900320A9
:1028700005900C20069002A9214800F05BF84DF667
:1028800033700290022003900020049003200590F2
:102890000C20069002A91B4800F04CF84FF63F00B0
:1028A00002900220039000200490032005900C2049
:1028B000069002A9144800F03DF82C200290022056
:1028C000039000200490032005900C20069002A99C
:1028D0000E4800F02FF84FF680700290022003900F
:1028E00000200490032005900C20069002A90848BF
:1028F00000F020F800BF9EE7380000203838024082
:1029000000180240000C024000140240001C02406B
:10291000001002407047000010B5044604480068EB
:10292000204020B1024804602046FFF7F3FF10BDAD
:10293000143C0140F8B502460B4600250024002057
:102940000021E6E0012606FA01F51E6806EA050404
:10295000AC4273D15E68012E08D05E68022E05D0AD
:102960005E68112E02D05E68122E13D190684F005F
:102970000326BE40B0434F00DE68BE403043906047
:10298000506801268E40B0431E79C6F300168E4073
:1029900030435060D0684F000326BE40B0434F0024
:1029A0009E68BE403043D0605E68022E02D05E68F2
:1029B000122E13D1CF0802F1200656F827004E0739
:1029C000F70E0F26BE40B0434F07FF0E1E69BE40F4
:1029D0003043CF0802F1200646F8270010684F0068
:1029E0000326BE40B0431E7906F003064F00BE40EA
:1029F000304310605E6806F08056B6F1805FA8D163
:102A000000BF00260096454E366846F48046434F88
:102A10003E603E46366806F48046009600BF00BF22
:102A20003F4E8F0856F827008E07370F0F26BE40FF
:102A3000B0433C4EB24202D100262EE068E03A4E4E
:102A4000B24201D1012628E0384EB24201D102261D
:102A500023E0374EB24201D103261EE0354EB2428A
:102A600001D1042619E0344EB24201D1052614E00A
:102A7000324EB24201D106260FE0314EB24201D1B0
:102A800007260AE02F4EB24201D1082605E02E4E5D
:102A9000B24201D1092600E00A268F073F0FBE404F
:102AA00030431F4E8F0846F82700284E3068A04359
:102AB0005E6806F48036B6F5803F00D12043234E91
:102AC0003060361D3068A0435E6806F40036B6F507
:102AD000003F00D120431D4E361D3060361D30684A
:102AE000A0435E6806F48016B6F5801F00D120432F
:102AF000164E08363060361D3068A0435E6806F416
:102B00000016B6F5001F00D12043104E0C36306081
:102B1000491C1029FFF416AFF8BD000044380240EC
:102B20000838014000000240000402400008024052
:102B3000000C024000100240001402400018024045
:102B4000001C02400020024000240240003C0140E2
:102B50000AB1816101E00B0483617047014800689C
:102B600070470000400000200348006803490978CE
:102B700008440149086070474000002048000020D8
:102B800010B50D48006840F400700B490860084615
:102B9000006840F4806008600846006840F4807077
:102BA0000860032000F0DEF8002000F007F800F0D5
:102BB0002BF8002010BD0000003C024070B5044618
:102BC0000E4800784FF47A71B1FBF0F00C490968B7
:102BD000B1FBF0F5284601F04FFA08B1012070BDB5
:102BE000102C07D200222146501E00F07DF8054827
:102BF000046001E00120F2E70020F0E74800002037
:102C00004C0000204400002008B500BF00200090C8
:102C10001048006840F480400E490860084600688B
:102C200000F48040009000BF00BF00BF0020009073
:102C3000081F006840F08050091F086008460068BF
:102C400000F08050009000BF00BF052000F08AF81F
:102C500008BD00004438024070B504460E461546D3
:102C60000CB9012070BD94F8210028B9002084F827
:102C70002000204600F023F8211D2068FFF7E8F827
:102C80003146D4E90002FFF7C8F82946D4E900022A
:102C9000FFF7A8F86068102806D12068006840F0A7
:102CA00004002168086005E02068006A40F0040024
:102CB00021680862012084F821000020D2E710B5C5
:102CC0000446FFF7AFFD10BD01460846002809DBAA
:102CD00000F01F0301229A4043099B0003F1E02307
:102CE000C3F8002100BF70472DE9F05F80460D4614
:102CF0001646002705F02EF8074639462A46334681
:102D000001F00700C0F1070ABAF1040F02D94FF031
:102D1000040A01E0C0F1070AD14600F1040ABAF141
:102D2000070F02D24FF0000A01E0A0F1030AD446D7
:102D30004FF0010A0AFA09FAAAF1010A0AEA020A9C
:102D40000AFA0CFA4FF0010B0BFA0CFBABF1010B7A
:102D50000BEA030B4AEA0B042146404605F002F851
:102D6000BDE8F09F00BF00F00702064B19684FF660
:102D7000FF031940044B0B4343EA0221014B196046
:102D800000BF70470CED00E00000FA0538B50024E4
:102D900000BF002000901D48006840F080501B4993
:102DA00008600846006800F08050009000BF00BF37
:102DB000012017490864FFF7D1FE044607E0FFF73A
:102DC000CDFE001BB0F57A7F01D9032038BD114834
:102DD000406800F48030B0F5803FF0D101200C490C
:102DE0004864FFF7BBFE044607E0FFF7B7FE001B91
:102DF000B0F57A7F01D90320E8E70648406800F47F
:102E00000030B0F5003FF0D10020DFE7403802404D
:102E100000000E420070004070B504460D460CB92B
:102E2000012070BD5848006800F00F00A84209D288
:102E300055490D700846006800F00F00A84201D007
:102E40000120EEE7207800F0020002281DD1207852
:102E500000F00400042805D14C48006840F4E0501C
:102E60004A490860207800F00800082805D1474842
:102E7000006840F46040454908604448006820F01C
:102E8000F000A168084341490860207800F0010083
:102E9000A8B36068012807D13C4808380068C0F32F
:102EA0004040B8B90120BCE76068022802D06068E1
:102EB000032807D1354808380068C0F3406048B996
:102EC0000120AEE7314808380068C0F3400008B977
:102ED0000120A6E72D48006820F003006168084340
:102EE0002A490860FFF73AFE064609E0FFF736FE7A
:102EF000801B41F28831884202D9032091E707E024
:102F00002248006800F00C006168B0EB810FEDD141
:102F10001D48006800F00F00A84209D91A490D7039
:102F20000846006800F00F00A84201D0012078E7B1
:102F3000207800F00400042807D11448006820F429
:102F4000E050E168084311490860207800F008006B
:102F5000082808D10D48006820F46040216940EA43
:102F6000C1000A49086000F03FF808490968C1F348
:102F70000311074A515CC8400649086006480068CA
:102F8000FFF71CFE00204CE7003C024008380240DE
:102F900048C100084C00002044000020014800689F
:102FA000704700004C00002000B5FFF7F7FF044910
:102FB0000968C1F38221034A515CC84000BD00008A
:102FC0000838024058C1000800B5FFF7E7FF044980
:102FD0000968C1F34231034A515CC84000BD00009A
:102FE0000838024058C100082DE9F04700240025A8
:102FF0000026A1462548006800F00C0020B10428F6
:1030000005D008283AD105E0DFF8849039E0DFF8F0
:10301000849036E01D48001F006800F03F041B4804
:10302000001F006800F4800078B11A481749091F92
:103030000968C1F38811A0FB0170014622460023F4
:103040003846FDF73CF905460EE011480F49091FC7
:103050000968C1F38811A0FB0170014622460023D4
:103060003846FDF72CF905460848001F0068C0F3F4
:103070000140401C4600B5FBF6F902E0DFF8109075
:1030800000BF00BF4846BDE8F08700000838024096
:103090000024F40000127A00F8B504460CB90120AF
:1030A000F8BD207800F00100002874D0F9480068CD
:1030B00000F00C0004280DD0F648006800F00C0069
:1030C000082813D1F348001F006800F48000B0F511
:1030D000800F0BD1EF4808380068C0F3404000284B
:1030E00059D06068002856D10120D9E700BF606838
:1030F000B0F5803F08D1E7480838006840F48030D8
:10310000E449083908601EE06068B0F5A02F0DD1D1
:10311000E0480838006840F48020DE49083908603B
:103120000846006840F4803008600CE0D948083850
:10313000006820F48030D7490839086008460068E4
:1031400020F48020086000BF606890B1FFF706FDA2
:10315000054606E0FFF702FD401B642801D9032065
:103160009EE7CC4808380068C0F340400028F1D002
:1031700011E0FFF7F3FC054606E0FFF7EFFC401B0C
:10318000642801D903208BE7C24808380068C0F3DF
:1031900040400028F1D1207800F0020002285FD1E1
:1031A000BC48006800F00C0058B1BA48006800F054
:1031B0000C0008281CD1B748001F006800F48000EC
:1031C000B0B9B44808380068C0F3400020B1E068E6
:1031D000012801D0012063E7AE480838006820F0DC
:1031E000F800216940EAC100AA490839086037E0BF
:1031F000E06800B30120A8490860FFF7AFFC05466E
:1032000006E0FFF7ABFC401B022801D9032047E78B
:10321000A04808380068C0F340000028F1D09D485D
:103220000838006820F0F800216940EAC100994997
:103230000839086014E0002097490860FFF78EFC09
:10324000054606E0FFF78AFC401B022801D903204F
:1032500026E7904808380068C0F340000028F1D104
:10326000207800F0080008282CD16069A8B101205E
:103270008A490860FFF772FC054606E0FFF76EFC1E
:10328000401B022801D903200AE782486C300068FD
:10329000C0F340000028F1D014E000207F4908600E
:1032A000FFF75CFC054606E0FFF758FC401B0228D0
:1032B00001D90320F4E677486C300068C0F3400081
:1032C0000028F1D1207800F00400042870D10027F4
:1032D00070483830006800F0805090B900BF00207E
:1032E00000906C483830006840F0805069493831AF
:1032F00008600846006800F08050009000BF00BFE2
:1033000001276748006800F48070B0B9644800681D
:1033100040F4807062490860FFF720FC054606E033
:10332000FFF71CFC401B022801D90320B8E65C48CB
:10333000006800F480700028F2D000BFA068012867
:1033400008D154486830006840F0010051496831A4
:1033500008601DE0A06805280DD14E48683000685F
:1033600040F004004B49683108600846006840F0AE
:10337000010008600CE047486830006820F0010058
:103380004449683108600846006820F0040008607D
:1033900000BFA068A8B1FFF7E1FB054609E0FFF711
:1033A000DDFB401B41F28831884202D9032077E6D9
:1033B00026E0384868300068C0F340000028EED0AE
:1033C00013E0FFF7CBFB054608E0FFF7C7FB401B08
:1033D00041F28831884201D9032061E62D486830E6
:1033E0000068C0F340000028EFD1012F07D1294821
:1033F0003830006820F0805026493831086000BF1E
:10340000A069002845D02348006800F00C00082877
:103410005DD0A069022845D100201F490866FFF74A
:103420009DFB054606E0FFF799FB401B022801D9EA
:10343000032035E6174808380068C0F340600028CC
:10344000F1D1D4E907010843616A40EA8111012200
:10345000A06AC2EB500041EA00412C20005D41EA25
:1034600000600C49091F086001200B490866FFF73E
:1034700075FB054606E0FFF771FB401B022801D9EA
:1034800003200DE6034808380068C0F340600028B8
:10349000F1D03FE00838024000004742800E47422A
:1034A0000070004000201C490866FFF757FB0546E6
:1034B00006E0FFF753FB401B022801D90320EFE58C
:1034C00016480068C0F340600028F2D122E0A069ED
:1034D000012800D1E4E511480830066806F48001AF
:1034E000E069814214D106F03F01206A81420FD188
:1034F00047F6C0703040616A884209D106F4403115
:10350000A06A814204D106F07061E06A814201D074
:103510000120C5E50020C3E5000047420038024015
:1035200070B504460D460CB9012070BD94F82C000E
:1035300028B9002084F82D00204600F011F8022060
:1035400084F82C00211D2068FEF7A8FC2946D4E948
:103550000002FEF707FD012084F82C000020E4E7BC
:1035600010B50446FFF75EF910BD000070B58AB0D3
:1035700004460D46032084F83400606C032820D0F4
:10358000B5F5805F04D1A06B40F08050A0631CE0D3
:10359000B5F5006F07D1204603F056FA0646A06B3A
:1035A0003043A06311E03DB9204603F019FA064606
:1035B000A06B3043A06308E0A06B40F00060A06304
:1035C00003E0A06B40F08050A063A06B38B11048BE
:1035D00021688863012084F834000AB070BD6068F7
:1035E0000490A0680590E0680690079560690890CF
:1035F000A069099007A807C88DE80700206804A9FA
:103600000EC902F06EFC012084F834000020E4E7CB
:10361000FF05400010B50246506E800F0870506ED6
:10362000C0F383604870506EC0F301608870506EC4
:10363000000CC870B2F86400000A087192F86400C7
:103640004871906E000DC880906EC0F30340087200
:103650006820805AC0F3C03048726820805AC0F396
:10366000803088726820805AC0F34030C872682069
:10367000805AC0F30030087300204873506C002853
:1036800036D16820805A8005030DD06E43EA9070D1
:103690000861D06EC0F3C2600875D06EC0F30260DE
:1036A0004875D06EC0F342508875D06EC0F382402A
:1036B000C875D06EC0F3C23008760869401C5065EA
:1036C0000B7E506D03F007039B1C01249C4060435C
:1036D0005065087A00F00F03012098409065D2E908
:1036E00015035B0A5843D0654FF40073136621E05D
:1036F000506C012813D16820805C8006830AD06E4C
:1037000043EA104008610869401C83025365536D09
:10371000D3654FF400739365936D13660AE02E48EA
:1037200013689863906B40F080509063012082F89A
:10373000340010BD6C20805AC0F3803001F8190F9E
:103740006C20805AC0F3C61048706C20805C00F07A
:103750007F008870106FC00FC870106FC0F3417089
:103760000871106FC0F382604871106FC0F383500E
:103770008871106FC0F34050C87100200872106F3C
:10378000C0F3004048727020805AC0F3C030887285
:103790007020805AC0F38030C8727020805AC0F305
:1037A000403008737020805AC0F300304873702096
:1037B000805AC0F3812088737020805AC0F30120A2
:1037C000C8737020805CC0F3460008740120487400
:1037D00019390020ADE70000FF054000014691F8CF
:1037E0003400704710B504460CB9012010BD94F8A0
:1037F000340020B900202077204600F053F8032041
:1038000084F83400204600F00BF808B10120EDE701
:103810000020A0632063012084F834000020E5E745
:1038200070B58AB004460020049005900690079079
:1038300008907620099007A807C88DE8070020683F
:1038400004A90EC902F04DFB064616B101200AB0CC
:1038500070BD002012490860206802F05CFB012066
:103860000F49A039C1F8A000204603F035F80546FD
:103870003DB1012084F83400A06B2843A0630120EF
:10388000E5E7204602F0A6FF05463DB1012084F899
:103890003400A06B2843A0630120D8E70020D6E7BE
:1038A000A080254210B586B00446142101A8FDF77A
:1038B0000FF82A49206888424DD100BF00200090AF
:1038C0002748006840F40060254908600846006801
:1038D00000F40060009000BF00BF00BF0020009017
:1038E0001F481438006840F004001D49143908606E
:1038F0000846006800F00400009000BF00BF00BF51
:10390000002000900846006840F008000860084663
:10391000006800F00800009000BF00BF4FF4F850AE
:1039200001900220029000200390032004900C20BC
:10393000059001A90B48FEF7FDFF0420019002202D
:10394000029000200390032004900C20059001A910
:103950000548FEF7EFFF06B010BD0000002C014047
:103960004438024000080240000C02402DE9FF4F9D
:1039700089B004468B469946DDF858A0FFF7EEF86B
:1039800002900B9800905D46BBF1000F07D1A06B31
:1039900040F00060A06301200DB0BDE8F08F94F806
:1039A000340001287ED10020A063009800EB0901BB
:1039B000E06D814205D9A06B40F00070A06301204A
:1039C000EAE7032084F8340000202168C862606CB4
:1039D000012802D00098400200904FF40071206846
:1039E00002F0FAFA8046B8F1000F0AD08E4821683A
:1039F0008863A06B40EA0800A063012084F83400CB
:103A0000CAE74FF0FF3003904FEA4920049090201E
:103A1000059002200690002007900120089003A93D
:103A2000206802F039FAB9F1010F07D902202063AA
:103A30002068009902F038FB804606E001202063F0
:103A40002068009902F04CFB8046B8F1000F0DD0C1
:103A5000754821688863A06B40EA0800A0630120D4
:103A600084F8340000202063012095E7049E3AE0AA
:103A70002068406B00F40040F0B1EEB100200190EE
:103A800017E0206802F050FA07462F706D1C761E72
:103A9000380A28706D1C761E380C28706D1C761E36
:103AA000380E00E0BAE028706D1C761E0198401CAC
:103AB000019001980828E4D3FFF750F80299401AC2
:103AC000504502D2BAF1000F0DD1574821688863E2
:103AD000A06B40F00040A063012084F83400002077
:103AE0002063032058E72068406B40F22A310840E9
:103AF0000028BDD02068406B00F48070D0B1B9F1CF
:103B0000010F17D9606C032814D0206802F08CFBD9
:103B10008046B8F1000F0DD0434821688863A06B40
:103B200040EA0800A063012084F8340000202063EC
:103B3000012031E72068406B00F0080068B13A4886
:103B400021688863A06B40F00800A063012084F81E
:103B500034000020206301201EE72068406B00F045
:103B6000020068B1304821688863A06B40F0020011
:103B7000A063012084F834000020206301200BE7BB
:103B80002068406B00F0200068B1274821688863F6
:103B9000A06B40F02000A063012084F834000020D6
:103BA00020630120F8E629E0206802F0BDF907460D
:103BB0002F706D1C761E380A28706D1C761E380C0E
:103BC00028706D1C761E380E28706D1C761EFEF750
:103BD000C5FF0299401A504502D2BAF1000F0DD12B
:103BE000114821688863A06B40F00040A063012069
:103BF00084F83400002020630120CDE62068406B6B
:103C000000F4001008B1002ECED140F23A502168E5
:103C10008863012084F834000020BDE6A06B40F0EA
:103C20000050A0630120B7E6FF0540002DE9F04FEA
:103C300089B00446894693469846FEF78FFF029066
:103C4000DA464E46B9F1000F07D1A06B40F0006094
:103C5000A063012009B0BDE8F08F94F8340001287A
:103C60007ED10020A0630AEB0801E06D814205D9F6
:103C7000A06B40F00070A0630120EBE7032084F804
:103C8000340000202168C862606C012801D04FEA2E
:103C90004A2A4FF40071206802F09EF905464DB1A2
:103CA000764821688863A06B2843A063012084F8CC
:103CB0003400CFE74FF0FF3003904FEA48200490E4
:103CC000902005900020069007900120089003A9FD
:103CD000206802F0E1F8B8F1010F07D92020206335
:103CE0005146206802F0BEFA054606E01020206327
:103CF0005146206802F0D2FA054665B15F48216856
:103D00008863A06B2843A063012084F8340000205E
:103D1000206301209EE7049F43E02068406B00F48D
:103D2000804040B33FB30020019021E03078009004
:103D3000761C7F1E3078009941EA00200090761CA6
:103D40007F1E3078009941EA00400090761C7F1E6B
:103D50003078009941EA00600090761C7F1E00E0F8
:103D600085E06946206802F0F7F80198401C019050
:103D700001980828DAD3FEF7F1FE0299411A129849
:103D8000814201D2129860B93C4821688863A06BD7
:103D90002843A063012084F834000020206303201E
:103DA00058E72068406B40F21A3108400028B4D030
:103DB0002068406B00F48070B8B1B8F1010F14D9DD
:103DC000606C032811D0206802F02EFA054665B118
:103DD0002A4821688863A06B2843A063012084F8E7
:103DE000340000202063012034E72068406B00F09D
:103DF000080068B1214821688863A06B40F0080082
:103E0000A063012084F8340000202063012021E712
:103E10002068406B00F0020068B118482168886390
:103E2000A06B40F00200A063012084F83400002061
:103E3000206301200EE72068406B00F0100068B19D
:103E40000E4821688863A06B40F01000A063012039
:103E500084F83400002020630120FBE640F23A5051
:103E600021688863012084F834000020F2E6A06B0A
:103E700040F00050A0630120ECE60000FF05400088
:103E800010B504460CB9012010BD606A00B900BF2E
:103E90000021A16294F8510028B9002084F8500054
:103EA000204600F033F8022084F8510020680068B2
:103EB00020F0400021680860D4E901010843E1686E
:103EC00008432169084361690843218B01F40071AB
:103ED0000843E1690843216A0843A16A084321684D
:103EE00008600421A06901EA1040616A0843216862
:103EF00048602068C06920F400602168C861002023
:103F00006065012084F851000020BDE710B586B03F
:103F10000446142101A8FCF7DBFC504920688842C4
:103F200030D100BF002000904D48006840F4805020
:103F30004B4908600846006800F48050009000BFBC
:103F400000BF00BF0020009045481438006840F0D2
:103F500001004349143908600846006800F0010078
:103F6000009000BF00BFE0200190022002900020DE
:103F70000390032004900520059001A93948FEF71D
:103F8000D9FC69E038492068884230D100BF002060
:103F900000903348006840F40050314908600846FA
:103FA000006800F40050009000BF00BF00BF002078
:103FB00000902B481438006840F01000284914394C
:103FC00008600846006800F01000009000BF00BFC5
:103FD00064200190022002900020039003200490AE
:103FE0000520059001A92148FEF7A4FC34E02049F2
:103FF0002068884230D100BF002000901848006837
:1040000040F48010164908600846006800F48010EB
:10401000009000BF00BF00BF00200090104814387F
:10402000006840F020000E49143908600846006816
:1040300000F02000009000BF00BF4FF460700190BE
:104040000220029000200390032004900520059098
:1040500001A90848FEF76EFC06B010BD0030014013
:104060004438024000000240003401400010024089
:10407000005001400014024070B504462546681EF9
:10408000B0F1807F01D301200FE0681E4FF0E021E6
:1040900048610F214FF0FF3003F064FE00204FF025
:1040A000E021886107200861002070BD30B502461C
:1040B0000B4600BF92F83C00012801D1022030BD20
:1040C000012082F83C0000BF022082F83D00106809
:1040D00044681068816824F070041868044310680C
:1040E0004460184D1068A8421BD01068B0F1804F92
:1040F00017D0154D1068A84213D0144D1068A8426F
:104100000FD0134D1068A8420BD0124D1068A84272
:1041100007D0114D1068A84203D0104D1068A84276
:1041200005D121F0800158680143106881600120A9
:1041300082F83D0000BF002082F83C0000BF00BFB5
:10414000BDE70000000001400004004000080040FE
:10415000000C0040000401400040014000180040F5
:1041600010B504460CB9012010BD94F83D0028B9E3
:10417000002084F83C00204600F00CF8022084F86F
:104180003D00211D206802F099FE012084F83D00C9
:104190000020E9E708B50A4A016891420FD100BF43
:1041A000002100910749096841F00801054A1160A2
:1041B0001146096801F00801009100BF00BF08BD69
:1041C000000C0040403802402DE9F04104460D4605
:1041D00000BF94F83C00012802D10220BDE8F08124
:1041E000012084F83C0000BF022084F83D002068D4
:1041F000866826F0770626F47F4620688660286861
:10420000502833D00CDC202850D004DC00284BD0C0
:10421000102851D149E0302849D040284CD139E00C
:1042200060282DD0702807D0B0F5805F03D0B0F59E
:10423000005F41D10DE040E0D5E902136A682068D3
:1042400002F0B9FE2068866846F07706206886602E
:1042500033E0D5E902136A68206802F0ACFE2068FA
:10426000806840F480402168886026E0EA686968D8
:10427000206802F091FF5021206802F0A7FE1CE0A8
:10428000EA686968206802F09AFF6021206802F0FD
:104290009DFE12E0EA686968206802F07DFF402117
:1042A000206802F093FE08E000BF00BF00BF29684D
:1042B000206802F08BFE00E000BF00BF012084F800
:1042C0003D0000BF002084F83C0000BF00BF85E730
:1042D00010B586B00446142101A8FCF7F9FA11497B
:1042E000206888421CD100BF002000900E48006862
:1042F00040F080000C4908600846006800F080002B
:10430000009000BF00BFC81401900220029000205E
:10431000039004900220059001A90448FEF70AFBCF
:1043200006B010BD000C004030380240001C0240B6
:1043300070B504460D46164600BF94F83C000128AF
:1043400001D1022070BD012084F83C0000BF022092
:1043500084F83D0036B1042E1BD0082E31D00C2E2F
:104360005ED145E02946206802F03AFE2068806967
:1043700040F00800216888612068806920F004000E
:1043800021688861206880692969084321688861FB
:1043900047E02946206802F05BFE2068806940F40F
:1043A0000060216888612068806920F4806021684D
:1043B000886120688069296940EA01202168886154
:1043C0002FE02946206802F081FE2068C06940F095
:1043D00008002168C8612068C06920F004002168D5
:1043E000C8612068C069296908432168C86118E06C
:1043F0002946206802F0A6FE2068C06940F40060EB
:104400002168C8612068C06920F480602168C861A3
:104410002068C069296940EA01202168C86100E07C
:1044200000BF00BF012084F83D0000BF002084F8D9
:104430003C0000BF00BF85E710B504460CB9012061
:1044400010BD94F83D0028B9002084F83C002046B7
:1044500000F00CF8022084F83D00211D206802F0D5
:104460002DFD012084F83D000020E9E770470000A1
:1044700070B504460E4601223146206802F08AFDDE
:104480000F492068884203D00E492068884201D134
:10449000012000E0002028B12068406C40F400407A
:1044A000216848642068806800F00705062D05D063
:1044B0002068006840F0010021680860002070BD9D
:1044C0000000014000040140704700002DE9F04762
:1044D0000446206805682068C668206847694FF070
:1044E0000008C14605F00F08B8F1000F0AD105F029
:1044F000200038B106F0200020B1204602F09DFED9
:10450000BDE8F087B8F1000F72D007F0010018B9CC
:1045100006F4907000286BD005F0010030B106F46D
:10452000807018B1E06B40F00100E06305F004001A
:1045300030B107F0010018B1E06B40F00200E06319
:1045400005F0020030B107F0010018B1E06B40F057
:104550000400E06305F0080048B106F0200010B93F
:1045600007F0010018B1E06B40F00800E063E06B79
:1045700070B305F0200028B106F0200010B12046ED
:1045800002F05BFE20684069C0F38019E06B00F028
:10459000080010B9B9F1000F23D0204602F02DFE1B
:1045A0002068406900F04000402816D1206840692A
:1045B00020F0400021684861606B50B11748616B82
:1045C0000865606BFDF726FF10B1606B016D8847D1
:1045D0000CE02046FFF778FF08E02046FFF774FF65
:1045E00004E02046FFF770FF0020E06388E7FFE764
:1045F00005F0800030B106F0800018B1204603F0CD
:1046000063F87DE705F0400030B106F0400018B1D6
:10461000204602F002FE73E700BF71E7E771000871
:1046200010B504460CB9012010BDA06900B100E02E
:1046300000BF94F8390028B9002084F838002046DB
:1046400000F028F8242084F839002068C06820F49D
:1046500000502168C860204602F042FE20680069D0
:1046600020F49040216808612068406920F02A0009
:10467000216848612068C06840F400502168C86023
:104680000020E063202084F8390084F83A000020FC
:10469000CAE7000010B586B00446142101A8FCF753
:1046A00017F91F492068884237D100BF00200090C9
:1046B0001C48006840F010001A490860084600686D
:1046C00000F01000009000BF00BF00BF002000906D
:1046D00014481438006840F0020012491439086088
:1046E0000846006800F00200009000BF00BFC02034
:1046F00001900220029000200390032004900720E4
:10470000059001A90848FEF715F903221146252056
:10471000FEF7EAFA2520FEF7D7FA06B010BD000032
:1047200000100140443802400004024070477047C6
:104730000CA0FBF75FFE13E00F4801680068401C07
:104740000D4A10600D4881420AD10D48006808B931
:10475000012000E000200A490860002006490860A6
:10476000EAE700000D0A0D0A5B4841524420464129
:10477000554C545D0D0A00003400002040771B00AA
:104780009482444210B500200F4908600F48006829
:1047900020F440100D4908600846006840F480107D
:1047A000086000200A49C1F8A802022005F07EFA3C
:1047B000012005490860022005F078FA002004492C
:1047C000C1F8A00210BD0000A082444200240240B3
:1047D0000080444210B500200F4908600F4800686F
:1047E00020F440100D4908600846006840F480102D
:1047F000086001200A49C1F8A802022005F056FA13
:10480000012005490860022005F050FA0020044903
:10481000C1F8A00210BD0000A08244420024024062
:104820000080444270B5054600241648006820F414
:10483000401014490860084600680860002616E029
:10484000002011490860022005F030FA01200F49CC
:10485000C1F8A0026006040E0B487838006808B161
:10486000601CC4B2012005F021FA701CC6B2082EEB
:10487000E6DB15B9FFF7AEFF01E0FFF783FF204647
:1048800070BD000000240240A082444200804442E7
:1048900070B504461548006820F4401013490860BC
:1048A0000846006840F48010086000201049086045
:1048B000002517E0E0090E49083108606006040E83
:1048C000022005F0F3F901200A49C1F8A0020220F4
:1048D00005F0ECF9002006490860022005F0E6F931
:1048E000681CC5B2082DE5DB70BD00000024024045
:1048F000A08244420080444210B50F48006820F472
:1049000040100D4908600846006840F480100860B7
:1049100001200A4908600A49C1F8A002022005F0F6
:10492000C5F9002005490860022005F0BFF9002004
:104930000349C1F8A00210BD00240240A8824442ED
:104940000080444210B50F48006820F440100D4923
:1049500008600846006840F48010086000200A499A
:1049600008600A49C1F8A802042005F09FF9012057
:10497000054908600549C1F8A802042005F096F928
:1049800010BD000000240240A08244420080444246
:1049900010B500241348006820F440101149086045
:1049A00008460068086001200F49086005F07EF99C
:1049B00001200E49C1F8A00205F078F907E0601C5B
:1049C000C4B2FA2C03DDFFF7BDFF012010BD06487D
:1049D000803800680028F2D103490839086000BF18
:1049E000F4E7000000240240A882444200804442D0
:1049F00010B5FF2000F0DCF8012005F037F9802128
:104A00006B2000F0EBF8012005F030F901216B205C
:104A100000F0E4F8012005F029F90721682000F0F2
:104A2000DDF8012005F022F901216A2000F0D6F816
:104A3000012005F01BF94021702000F0CFF8012083
:104A400005F014F900216C2000F0C8F8012005F0F1
:104A50000DF90021192000F0C1F8012005F006F938
:104A600004211A2000F0BAF8012005F0FFF81821FF
:104A70001B2000F0B3F8012005F0F8F800211C20FD
:104A800000F0ACF8012005F0F1F804211D2000F041
:104A9000A5F8012005F0EAF80021232000F09EF897
:104AA000012005F0E3F81021372000F097F80120ED
:104AB00005F0DCF80121382000F090F810BD00006E
:104AC00010B50446002007490860F52000F070F892
:104AD000FF2000F06DF82070012002490860207866
:104AE00010BD00008C0240422DE9F0412DED068BF7
:104AF000044600201C490860BB2000F059F800253E
:104B00000EE0FF2000F054F80746FF2000F050F8B8
:104B1000064646EA072000B224F81500681CC5B214
:104B2000072DEEDBB4F9060007F0ABF841EC1A0BE9
:104B30009FED0E0B53EC102B06F01EFF41EC190BF2
:104B40009FED0C0B53EC102B06F06EFE41EC180B96
:104B500006F038FE09490860012003490860BDECF1
:104B6000068BBDE8F08100008C02404252B81E85E1
:104B7000EBDD7440000000000000354050000020D4
:104B800070B5044600200849086044F0800000F039
:104B90000FF8FF2000F00CF8054601200349C1F88A
:104BA0008C02284670BD00008C024042000040424A
:104BB00000BF0949896801F002010029F9D00649BE
:104BC000C86000BF0449896801F001010029F9D0DB
:104BD0000149C968C8B270470030014070B5044649
:104BE0000D4600200649086004F07F00FFF7E0FF53
:104BF0002846FFF7DDFF01200249C1F88C0270BD95
:104C00008C0240420000404210B5094C0020094986
:104C100008601E2000F08EF901200749C1F8A802A3
:104C200000BF201EA4F10104FBD100F04DF910BD1E
:104C300020BF0200A8824242008042422DE9FF5F6D
:104C4000424903C907F0B4F900EE100A4048008950
:104C500000EE900AF8EE600A60EE200A9FED3D1A21
:104C600080EE810A3A48808800EE900AF8EE600AE9
:104C70009FED391A00EE810A10EE106A304607F0F7
:104C800015FACDE9000100203449086000F052F91E
:104C9000002000F04FF900250446280240EA146580
:104CA0002402002000F046F90443280240EA14657B
:104CB0002402002000F03EF9044301202849C1F8F5
:104CC000A8022348C08800232049D1E90021A0FB85
:104CD000026803FB028201FB00214FF48072304620
:104CE000FBF764FB1A4A52884FF40043A2FB0332DD
:104CF00010EB030A41EB020B20465246A0FB026E6A
:104D000005FB0AE104FB0B114FF4001200233046AF
:104D1000FBF74CFBDDE90032B0EB030861EB02016D
:104D20004FF4004200234046FBF740FBCDE902016F
:104D3000DDE9020107F03CF900EE100A9FED091AC7
:104D4000C0EE010AB0EE600ABDE8FF9F58000020E7
:104D5000E84B00200000004300000047A8824242C8
:104D6000008042420000C8422DE9F04100BF00200F
:104D70003749086000F0DEF8002000F0DBF8354924
:104D800008600846006800020860002000F0D2F8C1
:104D90003049096808432F49086008460068000246
:104DA0000860002000F0C6F82A490968084329492C
:104DB000086001202849C1F8A8022848408900EE6F
:104DC000100AF8EE400A234890ED000AB8EE400AB7
:104DD0009FED231A00EEC10A10EE101A084607F0E4
:104DE00065F9204A03C21D48808900221D49D1E986
:104DF0000031A0FB036802FB038201FB00214FF49A
:104E0000000200233046FBF7D1FA4FF4FA63C418CE
:104E100041F1000542F234110020091BA84102DAD9
:104E200042F2341400251049611A75F1FF3001DA9D
:104E30000D4C25132046294607F0BAF800EE100A5B
:104E40009FED0A1AC0EE010AB0EE600ABDE8F081DB
:104E5000A88242426400002000804242E84B0020C9
:104E6000000080435800002060F0FFFF0000C842AF
:104E700010B50446002008490860042C01DD042117
:104E800000E02146502202EB4101C8B200F052F886
:104E900001200149086010BDA882424210B50446B5
:104EA000002008490860042C01DD042100E02146AF
:104EB000402202EB4101C8B200F03CF80120014958
:104EC000086010BDA882424210B5002428E00020EE
:104ED00015490860A02101EB4401C8B200F02AF88E
:104EE000002000F027F8114921F81400084630F896
:104EF00014004FF6FF7101EA00200C4921F814005C
:104F0000002000F017F8094931F814100843074948
:104F100021F8140001200649C1F8A802601CC4B29F
:104F2000082CD4DB014810BDA8824242E84B002087
:104F300000804242014601220C4B1A6000BF0C4A1D
:104F4000926802F00202002AF9D0094AD16000BF3B
:104F5000074A926802F00102002AF9D0044AD26896
:104F6000D0B20022014B1A60704700009482444284
:104F7000005001401FB50020009001900290039066
:104F80001548164908604FF48030486000211348E6
:104F90008160012101610176002180F82010C16249
:104FA0000F4981620021C1600121C16180F8301088
:104FB0004161FDF7FBF808B1FCF7CEFE094800900F
:104FC000012001900020029069460448FDF718F87E
:104FD00008B1FCF7C1FE1FBD002001406044002065
:104FE0000100000F1200001008B500BF0020009063
:104FF0000A48006840F480000849086008460068D4
:1050000000F48000009000BF00BF0022114638204D
:10501000FDF76AFE3820FDF757FE08BD3038024024
:1050200010B59AB012491348FCF7A8FE124908704F
:1050300000240020199064216846FBF749FC0122F6
:105040000B490E4805F028F8044601220CA10F4830
:1050500005F052F8044619AB072269460B4805F0E3
:1050600063F90446094805F001F804461AB010BD7A
:10507000290000201400002028000020884700207C
:10508000303A2F6D656F772E74787400B849002020
:1050900000B58FB000200B900C900D900E900790F3
:1050A000089009900A901C216846FBF711FC3148D2
:1050B000314908604FF48070486000212E488160BB
:1050C000C1600161416101218161C16142F2B4109D
:1050D000294948624FF4DA71274881628021C16210
:1050E00040F61C010163012141638163002180F8C6
:1050F0003C1003200B9004200C9001200D90032005
:105100000E900790042008900120099003200A9037
:1051100007AA0BA91848FDF79FFD08B1FCF71CFE74
:105120001448E03015490860002048600021134809
:1051300081600821C160102101610021416180214D
:1051400081610021C16101624FF4805141620021FF
:1051500081621020009001900290039004900590CD
:10516000069069460548FEF7DBF908B1FCF7F4FD47
:105170000FB000BD600000A014470020544700207D
:1051800000B587B0142102A8FBF7A2FB00BF0020E6
:105190000190BA48006840F01000B849086008461D
:1051A000006800F01000019000BF00BF00BF0020A9
:1051B00001900846006840F0020008600846006858
:1051C00000F00200019000BF00BF00BF002001906E
:1051D0000846006840F0040008600846006800F0D7
:1051E0000400019000BF00BF00BF002001900846EE
:1051F000006840F0010008600846006800F0010007
:10520000019000BF00BF00BF002001900846006869
:1052100040F0400008600846006800F0400001903F
:1052200000BF00BF00BF002001900846006840F0AA
:10523000080008600846006800F00800019000BF00
:1052400000BF00BF002001900846006840F4807055
:1052500008600846006800F48070019000BF00BF3D
:1052600000BF002001900846006840F02000086060
:105270000846006800F02000019000BF00BF00BF9A
:10528000002001900846006840F4806008600846ED
:10529000006800F48060019000BF00BF00BF0020E4
:1052A00001900846006840F08000086008460068E9
:1052B00000F08000019000BF00BF00BF00200190FF
:1052C0000846006840F4007008600846006800F472
:1052D0000070019000BF00BF012210216848FDF757
:1052E00037FC012211026748FDF732FC00224FF41F
:1052F000C0616548FDF72CFC00224FF4A0616348B3
:10530000FDF726FC012291026148FDF721FC0122F4
:1053100011036048FDF71CFC012220215B48FDF7CA
:1053200017FC012208215848FDF712FC10200290BA
:1053300001200390002004900320059002A950480A
:10534000FDF7F8FA4FF4807002900120039004906A
:105350000020059002A94B48FDF7ECFA4FF4C0601D
:1053600002900120039000200490059002A9464875
:10537000FDF7E0FA062002904748039000200490D1
:1053800002A94648FDF7D6FA4FF4A060029001202A
:10539000039004900320059002A93C48FDF7CAFA47
:1053A000802002903E4803900120049002A93D48CD
:1053B000FDF7C0FA4FF48060029001200390049042
:1053C0000020059002A93248FDF7B4FA4FF480504E
:1053D00002900120039000200490059002A92D481E
:1053E000FDF7A8FA202002900120039002200490EB
:1053F0000020059002A92548FDF79CFA1120029093
:10540000294803900020049002A91F48FDF792FA52
:1054100008200290012003900020049003200590B2
:1054200002A91948FDF786FA022211460620FDF767
:105430005BFC0620FDF748FC032202210720FDF754
:1054400053FC0720FDF740FC032202210820FDF752
:105450004BFC0820FDF738FC002201210A20FDF753
:1054600043FC0A20FDF730FC002202211720FDF743
:105470003BFC1720FDF728FC07B000BD3038024088
:1054800000100240002002400000024000240240C0
:1054900000140240000402400000211000280240D5
:1054A00000001110001802400000311010B50D4826
:1054B0000D4908600020486000210B488160C160F0
:1054C000016141618161FEF78DF908B1FCF744FC8F
:1054D0004FF400610448FEF749F808B1FCF73CFCC2
:1054E00010BD0000002C01400845002010B50E48FA
:1054F0000E4908604FF48270486000210B488160BB
:10550000C1600221016101214161490281610021E3
:10551000C1610162416281620A21C162FEF7B0FC91
:1055200008B1FCF719FC10BD003001408C4500208B
:1055300010B50E480E4908604FF482704860002193
:105540000B488160C1600221016101214161490272
:1055500081610021C1610162416281620A21C162EF
:10556000FEF78EFC08B1FCF7F7FB10BD00340140DC
:10557000E445002010B50E480E4908604FF48270D3
:10558000486000210B488160C160016141614FF4B6
:10559000007181611821C161002101624162816253
:1055A0000A21C162FEF76CFC08B1FCF7D5FB10BD07
:1055B000005001403C46002000B58DB0002009900D
:1055C0000A900B900C90079008901C216846FBF7FE
:1055D0007FF921482149086042F2273048600021C4
:1055E0001E48816041F28731C16000210161816103
:1055F000FEF7B6FD08B1FCF7AFFB4FF48050099001
:1056000009A91648FEF7E0FD08B1FCF7A5FB134811
:10561000FEF712FF08B1FCF79FFB002007900890EF
:1056200007A90E48FEF742FD08B1FCF795FB602084
:1056300000906420019000200290049004226946AA
:105640000648FEF775FE08B1FCF786FB0348FEF737
:105650003FFE0DB000BD0000000C0040944600204D
:1056600010B50B480B4908604FF4E1304860002149
:1056700008488160C16001610C21416100218161A4
:10568000C161FEF7CDFF08B1FCF766FB10BD00005D
:1056900000100140D446002000BFFEE738B50446A4
:1056A0000020009040F61C00844200D9441E4FF4B4
:1056B0007F0000EA441000904FF47F4000EA44105D
:1056C0000099084300906007009941EA106000903B
:1056D00060200D4908700D49009808700098000A74
:1056E00008700098000C0870D0200749087008481E
:1056F00000F0B0F820B900F09BF840F0040038BD8D
:1057000000F096F8FBE70000000001800000028036
:10571000809698000CB501460020019000909020E2
:10572000094A10700020094A107090030068019027
:1057300090030088009001980860BDF80000486060
:105740000198C0B20CBD0000000001800000028082
:1057500010B5FF2006490870064800F07BF820B914
:1057600000F066F840F0400010BD00F061F8FBE783
:1057700000000180809698002DE9F05F06468A4679
:1057800014464FF0000800254FF0010942F2B41012
:10579000844200DD04462248864200D90646F709C5
:1057A00006F07F0BA0464FEA4B4040EA471000F45A
:1057B0007F054FF47F4000EA47100543780745EA2C
:1057C0001065002017490870174981F800804FEADA
:1057D000182008700D70280A0870280C08703020F6
:1057E00010490870114800F035F828B900F020F889
:1057F00040F00400BDE8F09F4FF0000906E04FF0D4
:10580000004000780AF8090009F1010942F2B410D9
:10581000A0EB08004845F2D800F00AF8EAE70000DB
:10582000FF0D04000000018000000280801A0600C5
:1058300000207021064A11700C2000BF011EA0F14B
:105840000102D0B2FAD14FF0004108787047000051
:105850000000018010B52DED068B04460120224981
:105860000860002021490860204606F021FA41EC3A
:105870001A0B9FED1F0B53EC102B06F07DF841EC3B
:10588000190B9FED1D0B53EC102B05F0CDFF41ECD8
:10589000180B06F0C9F904460CE014480068401CD7
:1058A0001249086008460068642803D10020BDEC56
:1058B000068B10BD124800680128EED00AE00B48A4
:1058C0000068401C0949086008460068A04201D1F0
:1058D0000020ECE70A4800680028F0D000200249C8
:1058E00008600120E3E70000948244427C0000202D
:1058F0000000000000001640000000000000F03F23
:105900001C02434270B504460E46154642F2B410DE
:10591000854200DD05463948844200D90446E00945
:105920003749086004F07F00364908603648056052
:105930000846007840043249096840EA411000F402
:105940007F00324908602E4800684FF47F4101EA29
:1059500040102E49096808432C49086028480078FF
:105960004007096841EA10602849086080202849FA
:105970000870254800782749087023480088000AE5
:10598000087022480078087020480088000A0870D3
:105990001E480068000C2049087000201F4908605C
:1059A00004E01E480068401C1C4908601B48006851
:1059B0003C28F6D30020194908600AE0174800681F
:1059C000305C4FF00041087014480068401C1349D7
:1059D00008601248006842F2B4118842EED31020E9
:1059E0000B4908700E48FFF735FF20B9FFF720FF7D
:1059F00040F0040070BDFFF71BFFFBE7FF0D040044
:105A0000900000208C0000208000002084000020F6
:105A10000000018000000280000002888800002051
:105A2000404B4C0070477047014600BF081100EB27
:105A30008000420001F00F001044C0B270470146E0
:105A4000002204E0501CC2B2A1F10A00C1B20A292E
:105A5000F8DA100741EA1060704700002DE9F041C4
:105A600005460E4617469846002400BF00F064F92C
:105A70000028FBD10B480468C4F30740FFF7D4FFAC
:105A80002870C4F30420FFF7CFFF307004F03F000C
:105A9000FFF7CAFF3870C4F3423088F80000BDE851
:105AA000F0810000042800402DE9F04105460E4633
:105AB00017469846002400BF00F03EF90028FBD1AD
:105AC0000B480468C4F30540FFF7AEFF2870C4F329
:105AD0000620FFF7A9FF307004F07F00FFF7A4FF56
